:1000000010C02AC029C028C027C026C025C024C0CF
:1000100023C022C021C020C01FC01EC01DC01CC0E4
:100020001BC011241FBECFE5D2E0DEBFCDBF10E064
:10003000A0E6B0E0EAEBF4E002C005900D92AC3926
:10004000B107D9F720E0ACE9B0E001C01D92A53AB4
:10005000B207E1F71FD22FC2D3CF88E790E0E2D0FA
:1000600080E517D189E890E0DDD02FEF8FEB91E2AA
:10007000215080409040E1F700C00000DEC08FEFCB
:1000800097E40197F1F700C0000081D0E6CFCF934D
:10009000DF93E0916200F0916300C1E6D0E08881D7
:1000A0000180F281E02D877009958881887F88839F
:1000B000DF91CF9108958F3FB1F1A0916400B0918D
:1000C00065008530C9F028F4813041F0843059F55D
:1000D0000CC08630C1F0893031F51CC01196ED910D
:1000E000FC91129713968C911BC01496ED91FC9184
:1000F000159716968C9114C01796ED91FC91189750
:1001000019968C910DC01A96ED91FC911B971C9637
:100110008C9106C01D96ED91FC911E971F968C91B7
:10012000309709F009940895AC9885BBAD9AAD98C5
:10013000AC9A089582950895AC9AFCDF982F9F7031
:10014000906195BBAD9AAD98F5DF8F70806185BBEE
:10015000AD9AAD9887E893E10197F1F700C00000F0
:10016000AC980895E9CFAC98E5DF982F9F7095BBC8
:10017000AD9AAD98DFDF8F7085BBAD9AAD9887E8FB
:1001800093E10197F1F700C00000AC9A08958FEF5A
:1001900084BB1092A10087E893E10197F1F700C0BA
:1001A000000083E0C1DF83EC99E00197F1F700C024
:1001B000000083E0B9DF83EC99E00197F1F700C01C
:1001C000000083E0B1DF83EC99E00197F1F700C014
:1001D000000082E0A9DF83EC99E00197F1F700C00D
:1001E000000088E2C0DF83EC99E00197F1F700C0DE
:1001F00000008FE0B8DF83EC99E00197F1F700C0D1
:10020000000081E0B0DF83EC99E00197F1F700C0D6
:10021000000086E0A8DF83EC99E00197F1F700C0C9
:1002200000000895CF93DF93EC0101C085DF899131
:100230008111FCCFDF91CF9108951092A10081E050
:1002400092CF80917600885F8ECF809176008E7FEE
:1002500080937600F6CF809176008160809376005F
:10026000F0CF809176008D7F80937600EACF8091E9
:100270007600826080937600E4CF809176008B7F59
:1002800080937600DECF8091760084608093760044
:10029000D8CF806868DF83EC99E00197F1F700C060
:1002A00000000895883259F018F4843159F407C0D9
:1002B0008C3319F0803531F404C084E103C08C5EC6
:1002C00001C080E0E6CF1F93CF93DF93CDB7DEB7B9
:1002D000E2970FB6F894DEBF0FBECDBF90E39983CF
:1002E00020E010E03AE00CC0632FD9D0E1E0F0E06C
:1002F000EC0FFD1FE20FF11D90639083122F2F5F13
:100300008111F2CF09C0E1E0F0E0EC0FFD1FE10F39
:10031000F11D808111DF11501111F5CF8981E29615
:100320000FB6F894DEBF0FBECDBFDF91CF911F9106
:1003300003CFCF93A0916200B09163001396ED912B
:10034000FC911497482F42954695469543708F73BC
:10035000C0E050E090E009C0FD01EC0FF11DEC0F92
:10036000F11D0380F481E02DCF5F309799F020815B
:10037000622F629566956695637070E064177507E5
:1003800029F02F7330E02817390731F7F093650013
:10039000E0936400CF910895CF93DF93C0916600FE
:1003A000D091670090E009C09F5FE92FF0E0EE0F69
:1003B000FF1FEA59FF4FC081D181209799F0288112
:1003C0002813F2CF3ADFD0936300C093620080918C
:1003D00061008760809361008B819C8190936500B0
:1003E00080936400DF91CF910895982F80E002C040
:1003F0008F5F96959111FCCF08950F931F93CF9324
:10040000DF938FE08ABB80EF8BBBC0E0D0E001E0E0
:1004100010E0C8010C2E01C0880F0A94EAF78095FD
:100420008BBB000089B390E08095909524E0959572
:1004300087952A95E1F78F709927E7E8F3E13197DF
:10044000F1F700C0000029B330E02095309554E06A
:10045000359527955A95E1F72F70332782130FC0F2
:10046000882369F020917700281749F0BEDF9C2F80
:10047000990F990F980F909377009F3F29F4219639
:10048000C430D10531F69FEF892FDF91CF911F91B5
:100490000F910895F4DDB1DF0EDEF9DDFCCF991B7D
:1004A00079E004C0991F961708F0961B881F7A956B
:0A04B000C9F780950895F894FFCF76
:1004BA000000000000009C00710000000200000023
:1004CA0000010000000007FF50726F746F636F6CC9
:1004DA00204578616D706C650063205769636B69AC
:0C04EA002F4B61736970696C6C616900D4
:00000001FF
